{
    "contractName": "LendingBorrowing",
    "abi": [
        {
            "inputs": [],
            "stateMutability": "nonpayable",
            "type": "constructor"
        },
        {
            "inputs": [
                {
                    "internalType": "address",
                    "name": "owner",
                    "type": "address"
                }
            ],
            "name": "OwnableInvalidOwner",
            "type": "error"
        },
        {
            "inputs": [
                {
                    "internalType": "address",
                    "name": "account",
                    "type": "address"
                }
            ],
            "name": "OwnableUnauthorizedAccount",
            "type": "error"
        },
        {
            "inputs": [],
            "name": "ReentrancyGuardReentrantCall",
            "type": "error"
        },
        {
            "anonymous": false,
            "inputs": [
                {
                    "indexed": true,
                    "internalType": "uint256",
                    "name": "_lenderId",
                    "type": "uint256"
                },
                {
                    "indexed": true,
                    "internalType": "address",
                    "name": "_lender",
                    "type": "address"
                },
                {
                    "indexed": true,
                    "internalType": "uint256",
                    "name": "_amount",
                    "type": "uint256"
                },
                {
                    "indexed": false,
                    "internalType": "uint256",
                    "name": "_rateOfReturn",
                    "type": "uint256"
                },
                {
                    "indexed": false,
                    "internalType": "uint256",
                    "name": "_interestPerDay",
                    "type": "uint256"
                },
                {
                    "indexed": false,
                    "internalType": "uint256",
                    "name": "_duration",
                    "type": "uint256"
                },
                {
                    "indexed": false,
                    "internalType": "uint256",
                    "name": "_startTime",
                    "type": "uint256"
                }
            ],
            "name": "LenderCreated",
            "type": "event"
        },
        {
            "anonymous": false,
            "inputs": [
                {
                    "indexed": true,
                    "internalType": "uint256",
                    "name": "_lenderId",
                    "type": "uint256"
                },
                {
                    "indexed": true,
                    "internalType": "address",
                    "name": "_lender",
                    "type": "address"
                },
                {
                    "indexed": true,
                    "internalType": "uint256",
                    "name": "_interestRedeemed",
                    "type": "uint256"
                },
                {
                    "indexed": false,
                    "internalType": "uint256",
                    "name": "_latestTimeOfInterestRedeemed",
                    "type": "uint256"
                }
            ],
            "name": "LenderInterestRedemption",
            "type": "event"
        },
        {
            "anonymous": false,
            "inputs": [
                {
                    "indexed": true,
                    "internalType": "uint256",
                    "name": "_lenderId",
                    "type": "uint256"
                },
                {
                    "indexed": true,
                    "internalType": "address",
                    "name": "_lender",
                    "type": "address"
                },
                {
                    "indexed": true,
                    "internalType": "uint256",
                    "name": "_lenderAmount",
                    "type": "uint256"
                },
                {
                    "indexed": false,
                    "internalType": "uint256",
                    "name": "_interestNotRedeemed",
                    "type": "uint256"
                }
            ],
            "name": "LenderMatured",
            "type": "event"
        },
        {
            "anonymous": false,
            "inputs": [
                {
                    "indexed": true,
                    "internalType": "uint256",
                    "name": "_loanId",
                    "type": "uint256"
                },
                {
                    "indexed": true,
                    "internalType": "address",
                    "name": "_borrower",
                    "type": "address"
                },
                {
                    "indexed": false,
                    "internalType": "uint256",
                    "name": "_amount",
                    "type": "uint256"
                },
                {
                    "indexed": false,
                    "internalType": "uint256",
                    "name": "_interestRate",
                    "type": "uint256"
                },
                {
                    "indexed": true,
                    "internalType": "address",
                    "name": "_nftContract",
                    "type": "address"
                },
                {
                    "indexed": false,
                    "internalType": "uint256",
                    "name": "_nftTokenId",
                    "type": "uint256"
                }
            ],
            "name": "LoanCreated",
            "type": "event"
        },
        {
            "anonymous": false,
            "inputs": [
                {
                    "indexed": true,
                    "internalType": "uint256",
                    "name": "_loanId",
                    "type": "uint256"
                },
                {
                    "indexed": true,
                    "internalType": "address",
                    "name": "_borrower",
                    "type": "address"
                }
            ],
            "name": "LoanRepaid",
            "type": "event"
        },
        {
            "anonymous": false,
            "inputs": [
                {
                    "indexed": true,
                    "internalType": "uint256",
                    "name": "_loanId",
                    "type": "uint256"
                },
                {
                    "indexed": true,
                    "internalType": "address",
                    "name": "_borrower",
                    "type": "address"
                },
                {
                    "indexed": false,
                    "internalType": "uint256",
                    "name": "_paidAmount",
                    "type": "uint256"
                },
                {
                    "indexed": false,
                    "internalType": "uint256",
                    "name": "_remainingAmount",
                    "type": "uint256"
                }
            ],
            "name": "LoanRepayment",
            "type": "event"
        },
        {
            "anonymous": false,
            "inputs": [
                {
                    "indexed": true,
                    "internalType": "address",
                    "name": "previousOwner",
                    "type": "address"
                },
                {
                    "indexed": true,
                    "internalType": "address",
                    "name": "newOwner",
                    "type": "address"
                }
            ],
            "name": "OwnershipTransferred",
            "type": "event"
        },
        {
            "inputs": [
                {
                    "internalType": "uint256",
                    "name": "_durationInYears",
                    "type": "uint256"
                }
            ],
            "name": "createLender",
            "outputs": [
                {
                    "internalType": "uint256",
                    "name": "",
                    "type": "uint256"
                }
            ],
            "stateMutability": "payable",
            "type": "function"
        },
        {
            "inputs": [
                {
                    "internalType": "uint256",
                    "name": "_amount",
                    "type": "uint256"
                },
                {
                    "internalType": "uint256",
                    "name": "_duration",
                    "type": "uint256"
                },
                {
                    "internalType": "address",
                    "name": "_nftAddress",
                    "type": "address"
                },
                {
                    "internalType": "uint256",
                    "name": "_nftTokenId",
                    "type": "uint256"
                },
                {
                    "internalType": "uint256",
                    "name": "_nftFloorPrice",
                    "type": "uint256"
                }
            ],
            "name": "createLoan",
            "outputs": [
                {
                    "internalType": "uint256",
                    "name": "",
                    "type": "uint256"
                }
            ],
            "stateMutability": "payable",
            "type": "function"
        },
        {
            "inputs": [],
            "name": "getAllBorrowers",
            "outputs": [
                {
                    "components": [
                        {
                            "internalType": "uint256",
                            "name": "loanId",
                            "type": "uint256"
                        },
                        {
                            "internalType": "uint256",
                            "name": "loanAmount",
                            "type": "uint256"
                        },
                        {
                            "internalType": "uint256",
                            "name": "remainingAmount",
                            "type": "uint256"
                        },
                        {
                            "internalType": "uint256",
                            "name": "interestRate",
                            "type": "uint256"
                        },
                        {
                            "internalType": "uint256",
                            "name": "interestAccrued",
                            "type": "uint256"
                        },
                        {
                            "internalType": "address",
                            "name": "borrower",
                            "type": "address"
                        },
                        {
                            "internalType": "uint256",
                            "name": "startTime",
                            "type": "uint256"
                        },
                        {
                            "internalType": "uint256",
                            "name": "lastPaymentTime",
                            "type": "uint256"
                        },
                        {
                            "internalType": "enum LendingBorrowing.LoanStatus",
                            "name": "status",
                            "type": "uint8"
                        },
                        {
                            "components": [
                                {
                                    "internalType": "address",
                                    "name": "contractAddress",
                                    "type": "address"
                                },
                                {
                                    "internalType": "uint256",
                                    "name": "tokenId",
                                    "type": "uint256"
                                }
                            ],
                            "internalType": "struct LendingBorrowing.Nft",
                            "name": "nftInfo",
                            "type": "tuple"
                        }
                    ],
                    "internalType": "struct LendingBorrowing.Loan[]",
                    "name": "",
                    "type": "tuple[]"
                }
            ],
            "stateMutability": "view",
            "type": "function"
        },
        {
            "inputs": [],
            "name": "getAllLenders",
            "outputs": [
                {
                    "components": [
                        {
                            "internalType": "uint256",
                            "name": "lendId",
                            "type": "uint256"
                        },
                        {
                            "internalType": "address",
                            "name": "lender",
                            "type": "address"
                        },
                        {
                            "internalType": "uint256",
                            "name": "lentAmount",
                            "type": "uint256"
                        },
                        {
                            "internalType": "uint256",
                            "name": "rateOfReturn",
                            "type": "uint256"
                        },
                        {
                            "internalType": "uint256",
                            "name": "interestPerDay",
                            "type": "uint256"
                        },
                        {
                            "internalType": "uint256",
                            "name": "startTime",
                            "type": "uint256"
                        },
                        {
                            "internalType": "uint256",
                            "name": "duration",
                            "type": "uint256"
                        },
                        {
                            "internalType": "enum LendingBorrowing.LenderStatus",
                            "name": "status",
                            "type": "uint8"
                        },
                        {
                            "internalType": "uint256",
                            "name": "lastInterestRedeemed",
                            "type": "uint256"
                        }
                    ],
                    "internalType": "struct LendingBorrowing.Lend[]",
                    "name": "",
                    "type": "tuple[]"
                }
            ],
            "stateMutability": "view",
            "type": "function"
        },
        {
            "inputs": [],
            "name": "getLiquidityAvailable",
            "outputs": [
                {
                    "internalType": "uint256",
                    "name": "",
                    "type": "uint256"
                }
            ],
            "stateMutability": "view",
            "type": "function"
        },
        {
            "inputs": [],
            "name": "getUsersLendings",
            "outputs": [
                {
                    "components": [
                        {
                            "internalType": "uint256",
                            "name": "lendId",
                            "type": "uint256"
                        },
                        {
                            "internalType": "address",
                            "name": "lender",
                            "type": "address"
                        },
                        {
                            "internalType": "uint256",
                            "name": "lentAmount",
                            "type": "uint256"
                        },
                        {
                            "internalType": "uint256",
                            "name": "rateOfReturn",
                            "type": "uint256"
                        },
                        {
                            "internalType": "uint256",
                            "name": "interestPerDay",
                            "type": "uint256"
                        },
                        {
                            "internalType": "uint256",
                            "name": "startTime",
                            "type": "uint256"
                        },
                        {
                            "internalType": "uint256",
                            "name": "duration",
                            "type": "uint256"
                        },
                        {
                            "internalType": "enum LendingBorrowing.LenderStatus",
                            "name": "status",
                            "type": "uint8"
                        },
                        {
                            "internalType": "uint256",
                            "name": "lastInterestRedeemed",
                            "type": "uint256"
                        }
                    ],
                    "internalType": "struct LendingBorrowing.Lend[]",
                    "name": "",
                    "type": "tuple[]"
                }
            ],
            "stateMutability": "view",
            "type": "function"
        },
        {
            "inputs": [],
            "name": "getUsersLoan",
            "outputs": [
                {
                    "components": [
                        {
                            "internalType": "uint256",
                            "name": "loanId",
                            "type": "uint256"
                        },
                        {
                            "internalType": "uint256",
                            "name": "loanAmount",
                            "type": "uint256"
                        },
                        {
                            "internalType": "uint256",
                            "name": "remainingAmount",
                            "type": "uint256"
                        },
                        {
                            "internalType": "uint256",
                            "name": "interestRate",
                            "type": "uint256"
                        },
                        {
                            "internalType": "uint256",
                            "name": "interestAccrued",
                            "type": "uint256"
                        },
                        {
                            "internalType": "address",
                            "name": "borrower",
                            "type": "address"
                        },
                        {
                            "internalType": "uint256",
                            "name": "startTime",
                            "type": "uint256"
                        },
                        {
                            "internalType": "uint256",
                            "name": "lastPaymentTime",
                            "type": "uint256"
                        },
                        {
                            "internalType": "enum LendingBorrowing.LoanStatus",
                            "name": "status",
                            "type": "uint8"
                        },
                        {
                            "components": [
                                {
                                    "internalType": "address",
                                    "name": "contractAddress",
                                    "type": "address"
                                },
                                {
                                    "internalType": "uint256",
                                    "name": "tokenId",
                                    "type": "uint256"
                                }
                            ],
                            "internalType": "struct LendingBorrowing.Nft",
                            "name": "nftInfo",
                            "type": "tuple"
                        }
                    ],
                    "internalType": "struct LendingBorrowing.Loan[]",
                    "name": "",
                    "type": "tuple[]"
                }
            ],
            "stateMutability": "view",
            "type": "function"
        },
        {
            "inputs": [
                {
                    "internalType": "uint256",
                    "name": "",
                    "type": "uint256"
                }
            ],
            "name": "lenders",
            "outputs": [
                {
                    "internalType": "uint256",
                    "name": "lendId",
                    "type": "uint256"
                },
                {
                    "internalType": "address",
                    "name": "lender",
                    "type": "address"
                },
                {
                    "internalType": "uint256",
                    "name": "lentAmount",
                    "type": "uint256"
                },
                {
                    "internalType": "uint256",
                    "name": "rateOfReturn",
                    "type": "uint256"
                },
                {
                    "internalType": "uint256",
                    "name": "interestPerDay",
                    "type": "uint256"
                },
                {
                    "internalType": "uint256",
                    "name": "startTime",
                    "type": "uint256"
                },
                {
                    "internalType": "uint256",
                    "name": "duration",
                    "type": "uint256"
                },
                {
                    "internalType": "enum LendingBorrowing.LenderStatus",
                    "name": "status",
                    "type": "uint8"
                },
                {
                    "internalType": "uint256",
                    "name": "lastInterestRedeemed",
                    "type": "uint256"
                }
            ],
            "stateMutability": "view",
            "type": "function"
        },
        {
            "inputs": [
                {
                    "internalType": "uint256",
                    "name": "",
                    "type": "uint256"
                }
            ],
            "name": "lendingReturnRates",
            "outputs": [
                {
                    "internalType": "uint256",
                    "name": "",
                    "type": "uint256"
                }
            ],
            "stateMutability": "view",
            "type": "function"
        },
        {
            "inputs": [],
            "name": "loanCount",
            "outputs": [
                {
                    "internalType": "uint256",
                    "name": "",
                    "type": "uint256"
                }
            ],
            "stateMutability": "view",
            "type": "function"
        },
        {
            "inputs": [
                {
                    "internalType": "uint256",
                    "name": "",
                    "type": "uint256"
                }
            ],
            "name": "loanInterestRates",
            "outputs": [
                {
                    "internalType": "uint256",
                    "name": "",
                    "type": "uint256"
                }
            ],
            "stateMutability": "view",
            "type": "function"
        },
        {
            "inputs": [
                {
                    "internalType": "uint256",
                    "name": "",
                    "type": "uint256"
                }
            ],
            "name": "loans",
            "outputs": [
                {
                    "internalType": "uint256",
                    "name": "loanId",
                    "type": "uint256"
                },
                {
                    "internalType": "uint256",
                    "name": "loanAmount",
                    "type": "uint256"
                },
                {
                    "internalType": "uint256",
                    "name": "remainingAmount",
                    "type": "uint256"
                },
                {
                    "internalType": "uint256",
                    "name": "interestRate",
                    "type": "uint256"
                },
                {
                    "internalType": "uint256",
                    "name": "interestAccrued",
                    "type": "uint256"
                },
                {
                    "internalType": "address",
                    "name": "borrower",
                    "type": "address"
                },
                {
                    "internalType": "uint256",
                    "name": "startTime",
                    "type": "uint256"
                },
                {
                    "internalType": "uint256",
                    "name": "lastPaymentTime",
                    "type": "uint256"
                },
                {
                    "internalType": "enum LendingBorrowing.LoanStatus",
                    "name": "status",
                    "type": "uint8"
                },
                {
                    "components": [
                        {
                            "internalType": "address",
                            "name": "contractAddress",
                            "type": "address"
                        },
                        {
                            "internalType": "uint256",
                            "name": "tokenId",
                            "type": "uint256"
                        }
                    ],
                    "internalType": "struct LendingBorrowing.Nft",
                    "name": "nftInfo",
                    "type": "tuple"
                }
            ],
            "stateMutability": "view",
            "type": "function"
        },
        {
            "inputs": [],
            "name": "owner",
            "outputs": [
                {
                    "internalType": "address",
                    "name": "",
                    "type": "address"
                }
            ],
            "stateMutability": "view",
            "type": "function"
        },
        {
            "inputs": [
                {
                    "internalType": "uint256",
                    "name": "_lenderId",
                    "type": "uint256"
                }
            ],
            "name": "redeemLendersInterest",
            "outputs": [],
            "stateMutability": "payable",
            "type": "function"
        },
        {
            "inputs": [],
            "name": "renounceOwnership",
            "outputs": [],
            "stateMutability": "nonpayable",
            "type": "function"
        },
        {
            "inputs": [
                {
                    "internalType": "uint256",
                    "name": "_loanId",
                    "type": "uint256"
                }
            ],
            "name": "repayLoan",
            "outputs": [],
            "stateMutability": "payable",
            "type": "function"
        },
        {
            "inputs": [
                {
                    "internalType": "uint256",
                    "name": "_lenderId",
                    "type": "uint256"
                }
            ],
            "name": "retrieveLendersFund",
            "outputs": [],
            "stateMutability": "payable",
            "type": "function"
        },
        {
            "inputs": [
                {
                    "internalType": "address",
                    "name": "newOwner",
                    "type": "address"
                }
            ],
            "name": "transferOwnership",
            "outputs": [],
            "stateMutability": "nonpayable",
            "type": "function"
        },
        {
            "stateMutability": "payable",
            "type": "receive"
        }
    ],
    "bytecode": "60808060405234610117573315610104575f8054336001600160a01b0319821681178355916001600160a01b03909116907f8be0079c531659141344cd1fd0a4f28419497f9722a3daafe3b4186f6b6457e09080a3600180555f6004819055600a7f1471eb6eb2c5e789fc3de43f8ce62938c7d1836ec861730447e2ada8fd81017b55600b7f89832631fb3c3307a103ba2c84ab569c64d6182a18893dcd163f0f1c2090733a556006602081905260057f3e5fec24aa4dc4e5aee2e025e51e1392c72a2500577559fae9665c6d52bd6a315560029091527f8819ef417987f8ae7a81f42cdfb18815282fe989326fbff903d13cf0e03ace2955611ba7908161011c8239f35b631e4fbdf760e01b5f525f60045260245ffd5b5f80fdfe608080604052600436101561001c575b50361561001a575f80fd5b005b5f905f3560e01c908163159d970b146115545750806329eee7eb1461148357806332abcdbe146113f75780633cf378a2146113cd5780634696e5f3146113b05780636d8b94e8146110da578063715018a6146110835780637c69973c14610e485780638449cc0c1461099357806388055fb3146107405780638da5cb5b14610719578063929eea21146106785780639662e44c146105a2578063a1666b5414610513578063ab7b1c8914610264578063ce63094d14610246578063e1ec3c68146101785763f2fde38b0361000f5734610175576020366003190112610175576004356001600160a01b0381169081900361017357610118611b2b565b801561015f5781546001600160a01b03198116821783556001600160a01b03167f8be0079c531659141344cd1fd0a4f28419497f9722a3daafe3b4186f6b6457e08380a380f35b631e4fbdf760e01b82526004829052602482fd5b505b80fd5b50346101755760203660031901126101755760043590600254821015610175576101606101a48361172a565b5061024481549160018101549060028101546003820154600483015460018060a01b03600585015416906006850154926007860154946101ee600960ff60088a01541698016117be565b976040519a8b5260208b015260408a01526060890152608088015260a087015260c086015260e08501526102218161157a565b61010084015280516001600160a01b031661012084015260200151610140830152565bf35b50346101755780600319360112610175576020600754604051908152f35b5060203660031901126101755760043561027c611b51565b6102858161172a565b5060058101546001600160a01b031633036104de57600881019060ff8254166102ad8161157a565b6104a35760078101916102c1835442611a13565b926002830163bbf81e006102e48254966102df6003880154896119a9565b6119a9565b04916103026102f860048701948554611a20565b8097818655611a20565b341161045e57879534811161044c575061032a610320845434611a13565b8785558354611a13565b82555b429055549081159081610442575b50156104065750805460ff191660011790556009810154600a9190910154906001600160a01b0316803b15610402576040516323b872dd60e01b8152306004820152336024820152604481019290925282908290606490829084905af180156103f7576103e2575b505033907fe69d7686a8bc68278b8c5419579f91716b3ef2ac2fac0d8cf80b8011f8f458a48380a35b6103d834600454611a20565b6004556001805580f35b816103ec9161179c565b61017357815f6103a3565b6040513d84823e3d90fd5b8280fd5b93925050506040519134835260208301527f423d4247c9657cdb09843c408af41209510b73810b54ad1e03de626ec321239060403393a36103cc565b905054155f61033b565b610457903490611a13565b835561032d565b60405162461bcd60e51b815260206004820152601b60248201527f5061796d656e74206578636565647320616d6f756e74206475652e00000000006044820152606490fd5b60405162461bcd60e51b81526020600482015260136024820152722637b0b71034b9903737ba1030b1ba34bb329760691b6044820152606490fd5b60405162461bcd60e51b815260206004820152600d60248201526c2737ba103137b93937bbb2b91760991b6044820152606490fd5b5034610175578060031936011261017557600354610530816117e5565b9161053e604051938461179c565b818352600381527fc2575a0e9e593c00f959f8c92f12db2869c3395a3b0502d05e2516446f71f85b602084015b83831061058457604051806105808782611598565b0390f35b6009602060019261059485611897565b81520192019201919061056b565b50346101755780600319360112610175576002546105bf81611a8b565b8291835b8181106106165750506105d582611a8b565b925b8281106105ec57604051806105808682611636565b806105f960019284611883565b516106048287611883565b5261060f8186611883565b50016105d7565b61061f8161172a565b50600501546001600160a01b0316331461063c575b6001016105c3565b9261067060019161065561064f8761172a565b5061191e565b61065f8287611883565b5261066a8186611883565b50611910565b939050610634565b50346101755760203660031901126101755760043590600354821015610175576101206106a4836116fa565b5080549060018060a01b0360018201541690600281015460038201546004830154600584015491600685015493600860ff60078801541696015496604051988952602089015260408801526060870152608086015260a085015260c084015261070c8161157a565b60e0830152610100820152f35b5034610175578060031936011261017557546040516001600160a01b039091168152602090f35b50602036600319011261017557600435610758611b51565b610761816116fa565b50600101546001600160a01b0316330361095e5760ff6007610782836116fa565b5001541661078f8161157a565b610919576107b860066107a1836116fa565b50015460056107af846116fa565b50015490611a20565b42106108ca5761081660046107cc836116fa565b5001546201518061080f60066107e1866116fa565b50015461080960086107f2886116fa565b5001546005610800896116fa565b50015490611a13565b90611a13565b04906119a9565b906007610822826116fa565b5001600160ff198254161790556108406004546002610800846116fa565b600455610872838080806108616002610858886116fa565b50015488611a20565b335af161086c6119bc565b50611a2d565b61087b816116fa565b50600101546001600160a01b0316907f0550f9119b8386e57e90b012d2bda6596c4e4879242555e77ac2a6948b9abc2e602060026108b8846116fa565b50015494604051908152a46001805580f35b60405162461bcd60e51b815260206004820152602160248201527f6c656e64696e672066756e6420686173206e6f74206d617475726564207965746044820152601760f91b6064820152608490fd5b60405162461bcd60e51b815260206004820152601b60248201527f4c656e64696e672066756e64206973206e6f74206163746976652e00000000006044820152606490fd5b60405162461bcd60e51b815260206004820152600d60248201526c2737ba1030903632b73232b91760991b6044820152606490fd5b5060a0366003190112610cc8576044356001600160a01b0381168103610cc8576109bb611b51565b6040516331a9108f60e11b815260643560048201526020816024816001600160a01b0386165afa908115610cbd575f91610e29575b50336001600160a01b0390911603610df05760843560043511610d9f5760045460043511610d505760405163020604bf60e21b815260643560048201526020816024816001600160a01b0386165afa908115610cbd575f91610d21575b50306001600160a01b0390911603610ccc576001600160a01b0381163b15610cc8576040516323b872dd60e01b81523360048201523060248201526064803560448301525f90829081836001600160a01b0387165af18015610cbd57610ca8575b50610abd600435600454611a13565b600455610ad582808080600435335af161086c6119bc565b6024358252600560205260408220546002549160405193610af585611763565b6001600160a01b0382168552606435602086015260405194610b168661177f565b848652600435602087015260043560408701528360608701528160808701523360a08701524260c08701524260e087015281610100870152610120860152600160401b841015610c945760018401600255610b708461172a565b919091610c80575084518155602085810151600183015560408601516002830155606086015160038301556080860151600483015560a08601516005830180546001600160a01b0319166001600160a01b039290921691909117905560c0860151600683015560e086015160078301556101008601519095600a91879161012091610c0790610bfe8161157a565b600887016119fb565b015180516009850180546001600160a01b0319166001600160a01b03928316179055910151919092015560408051600435815286810194909452606435908401521690339083907ffb3cf330ffa88e8945a94a2b8ee83f408c9af8ec03bee1aaada89532a2d2803a90606090a460018055604051908152f35b634e487b7160e01b81526004819052602490fd5b634e487b7160e01b81526041600452602490fd5b610cb59192505f9061179c565b5f905f610aae565b6040513d5f823e3d90fd5b5f80fd5b60405162461bcd60e51b815260206004820152602760248201527f436f6e7472616374206e6f7420617070726f76656420666f722068616e646c6960448201526637339027232a1760c91b6064820152608490fd5b610d43915060203d602011610d49575b610d3b818361179c565b810190611a6c565b5f610a4d565b503d610d31565b60405162461bcd60e51b815260206004820152602160248201527f496e73756666696369656e74206c697175696469747920617661696c61626c656044820152601760f91b6064820152608490fd5b60405162461bcd60e51b8152602060048201526024808201527f4e465420636f6c6c61746572616c2076616c7565206c657373207468616e206c60448201526337b0b71760e11b6064820152608490fd5b60405162461bcd60e51b81526020600482015260116024820152702737ba1037bbb732b91037b31027232a1760791b6044820152606490fd5b610e42915060203d602011610d4957610d3b818361179c565b5f6109f0565b6020366003190112610cc857600435610e5f611b51565b610e68816116fa565b50600101546001600160a01b0316330361104a57610e8a60066107a1836116fa565b42116110055762015180610eab6008610ea2846116fa565b50015442611a13565b049060018210610fab57610ecc826004610ec4846116fa565b5001546119a9565b916008610ed8836116fa565b50015490601881029080820460181481151715610f97576105a0810291808304603c1490151715610f9757620151800290808204603c1490151715610f9757610f2091611a20565b6008610f2b836116fa565b500155610f415f80808086335af161086c6119bc565b610f4a816116fa565b50600101546001600160a01b0316907f67b889c14206c9a0aedd2ca8f87ee19a4317dbe1fa4d418237df95b145652ef160206008610f87846116fa565b500154604051908152a460018055005b634e487b7160e01b5f52601160045260245ffd5b60405162461bcd60e51b815260206004820152602c60248201527f496e73756666696369656e742074696d6520666f7220696e746572657374206160448201526b31b1bab6bab630ba34b7b71760a11b6064820152608490fd5b60405162461bcd60e51b815260206004820152601e60248201527f54686973206c656e64696e672066756e6420686173206d6174757265642e00006044820152606490fd5b60405162461bcd60e51b815260206004820152601160248201527026bab9ba1031329030903632b73232b91760791b6044820152606490fd5b34610cc8575f366003190112610cc85761109b611b2b565b5f80546001600160a01b0319811682556001600160a01b03167f8be0079c531659141344cd1fd0a4f28419497f9722a3daafe3b4186f6b6457e08280a3005b6020366003190112610cc857600435341561137b57600354815f52600660205260405f205491606461110c84346119a9565b048161016d0261016d81048303610f975780156113675781045f80808034305af16111356119bc565b5061016d84029380850461016d1481151715610f975761223881029480860460181490151715610f975762080520810294808604603c1490151715610f97576301e133800293808504603c1490151715610f975715611330576040519261119b84611746565b84845260208401903382526040850194348652606081019788526080810193845260a081019142835260c0820190815260e08201905f8252610100830193428552600354600160401b81101561131c578060016111fb92016003556116fa565b9790976113095760209b6112889a60089861127197518b5560018060a01b0390511660018b019060018060a01b03166bffffffffffffffffffffffff60a01b8254161790555160028a0155516003890155516004880155516005870155516006860155516112688161157a565b600785016119fb565b519101556112826004549134611a13565b90611a20565b6004556003611296826116fa565b50015460046112a4836116fa565b50015460066112b2846116fa565b50015460056112c0856116fa565b5001549160405193845285840152604083015260608201523490827fb05b29f5f32e0a8e7a94e6b7b4df430db91493d42a26af069a53c3dfa09fc08a60803393a4604051908152f35b634e487b7160e01b5f525f60045260245ffd5b634e487b7160e01b5f52604160045260245ffd5b60405162461bcd60e51b815260206004820152600f60248201526e151c985b9cd9995c8811985a5b1959608a1b6044820152606490fd5b634e487b7160e01b5f52601260045260245ffd5b60405162461bcd60e51b815260206004820152600d60248201526c496e76616c69642076616c756560981b6044820152606490fd5b34610cc8575f366003190112610cc8576020600454604051908152f35b34610cc8576020366003190112610cc8576004355f526005602052602060405f2054604051908152f35b34610cc8575f366003190112610cc857600254611413816117e5565b90611421604051928361179c565b8082526020820160025f527f405787fa12a823e0f2b7631cc41b3ba8828b3321ca811111fa75cd3aa3bb5ace5f915b83831061146557604051806105808782611636565b600b60206001926114758561191e565b815201920192019190611450565b34610cc8575f366003190112610cc85760035461149f816117fd565b905f905f5b8181106114f85750506114b6816117fd565b915f5b8281106114ce57604051806105808682611598565b806114db60019284611883565b516114e68287611883565b526114f18186611883565b50016114b9565b611501816116fa565b50600101546001600160a01b0316331461151e575b6001016114a4565b9161154c600191611537611531866116fa565b50611897565b6115418288611883565b5261066a8187611883565b929050611516565b34610cc8576020366003190112610cc8576020906004355f526006825260405f20548152f35b6002111561158457565b634e487b7160e01b5f52602160045260245ffd5b60206040818301928281528451809452019201905f5b8181106115bb5750505090565b9091926020610120600192610100875180518352858060a01b0385820151168584015260408101516040840152606081015160608401526080810151608084015260a081015160a084015260c081015160c084015260e081015161161e8161157a565b60e084015201516101008201520194019291016115ae565b60206040818301928281528451809452019201905f5b8181106116595750505090565b90919260206101606001926116ef6101208851805184528581015186850152604081015160408501526060810151606085015260808101516080850152868060a01b0360a08201511660a085015260c081015160c085015260e081015160e08501526101008101516116ca8161157a565b610100850152015180516001600160a01b031661012084015260200151610140830152565b01940192910161164c565b6003548110156117165760035f52600960205f20910201905f90565b634e487b7160e01b5f52603260045260245ffd5b6002548110156117165760025f52600b60205f20910201905f90565b610120810190811067ffffffffffffffff82111761131c57604052565b6040810190811067ffffffffffffffff82111761131c57604052565b610140810190811067ffffffffffffffff82111761131c57604052565b90601f8019910116810190811067ffffffffffffffff82111761131c57604052565b906040516117cb81611763565b82546001600160a01b031681526001909201546020830152565b67ffffffffffffffff811161131c5760051b60200190565b90611807826117e5565b611814604051918261179c565b8281528092611825601f19916117e5565b01905f5b82811061183557505050565b60209060405161184481611746565b5f81525f838201525f60408201525f60608201525f60808201525f60a08201525f60c08201525f60e08201525f61010082015282828501015201611829565b80518210156117165760209160051b010190565b906040516118a481611746565b610100600882948054845260018060a01b036001820154166020850152600281015460408501526003810154606085015260048101546080850152600581015460a0850152600681015460c085015260ff6007820154166119048161157a565b60e08501520154910152565b5f198114610f975760010190565b9060405161192b8161177f565b6101206119a460098395805485526001810154602086015260028101546040860152600381015460608601526004810154608086015260018060a01b0360058201541660a0860152600681015460c0860152600781015460e086015260ff6008820154166119988161157a565b610100860152016117be565b910152565b81810292918115918404141715610f9757565b3d156119f6573d9067ffffffffffffffff821161131c57604051916119eb601f8201601f19166020018461179c565b82523d5f602084013e565b606090565b90611a058161157a565b60ff80198354169116179055565b91908203918211610f9757565b91908201809211610f9757565b15611a3457565b60405162461bcd60e51b815260206004820152601060248201526f2a3930b739b332b9103330b4b632b21760811b6044820152606490fd5b90816020910312610cc857516001600160a01b0381168103610cc85790565b90611a95826117e5565b611aa2604051918261179c565b8281528092611ab3601f19916117e5565b01905f5b828110611ac357505050565b602090604051611ad28161177f565b5f81525f838201525f60408201525f60608201525f60808201525f60a08201525f60c08201525f60e08201525f610100820152604051611b1181611763565b5f81525f8482015261012082015282828501015201611ab7565b5f546001600160a01b03163303611b3e57565b63118cdaa760e01b5f523360045260245ffd5b600260015414611b62576002600155565b633ee5aeb560e01b5f5260045ffdfea2646970667358221220e8dfc80c6de5d9be7717d2cdf1f7913be81038d48ee138586f1b30a6f841360d64736f6c634300081b0033",
    "sourcePath": "/Users/trishateh/Documents/lending-linea/contract/contracts/LendingBorrowing.sol",
    "compiler": {
        "name": "solc",
        "version": "0.8.27+commit.40a35a09"
    },
    "functionHashes": {
        "createLender(uint256)": "6d8b94e8",
        "createLoan(uint256,uint256,address,uint256,uint256)": "8449cc0c",
        "getAllBorrowers()": "32abcdbe",
        "getAllLenders()": "a1666b54",
        "getLiquidityAvailable()": "4696e5f3",
        "getUsersLendings()": "29eee7eb",
        "getUsersLoan()": "9662e44c",
        "lenders(uint256)": "929eea21",
        "lendingReturnRates(uint256)": "159d970b",
        "loanCount()": "ce63094d",
        "loanInterestRates(uint256)": "3cf378a2",
        "loans(uint256)": "e1ec3c68",
        "owner()": "8da5cb5b",
        "redeemLendersInterest(uint256)": "7c69973c",
        "renounceOwnership()": "715018a6",
        "repayLoan(uint256)": "ab7b1c89",
        "retrieveLendersFund(uint256)": "88055fb3",
        "transferOwnership(address)": "f2fde38b"
    },
    "gasEstimates": {
        "creation": {
            "codeDepositCost": "1415800",
            "executionCost": "142850",
            "totalCost": "1558650"
        },
        "external": {
            "createLender(uint256)": "infinite",
            "createLoan(uint256,uint256,address,uint256,uint256)": "infinite",
            "getAllBorrowers()": "infinite",
            "getAllLenders()": "infinite",
            "getLiquidityAvailable()": "2349",
            "getUsersLendings()": "infinite",
            "getUsersLoan()": "infinite",
            "lenders(uint256)": "23945",
            "lendingReturnRates(uint256)": "2318",
            "loanCount()": "2594",
            "loanInterestRates(uint256)": "2392",
            "loans(uint256)": "28508",
            "owner()": "2505",
            "redeemLendersInterest(uint256)": "infinite",
            "renounceOwnership()": "28187",
            "repayLoan(uint256)": "infinite",
            "retrieveLendersFund(uint256)": "infinite",
            "transferOwnership(address)": "28504"
        },
        "internal": {
            "calculateInterestEarnedPerDay(uint256,uint256)": "infinite"
        }
    }
}