{
  "_format": "hh-sol-artifact-1",
  "contractName": "LendingBorrowing",
  "sourceName": "contracts/LendingBorrowing.sol",
  "abi": [
    {
      "inputs": [
        {
          "internalType": "address",
          "name": "_lendingToken",
          "type": "address"
        },
        {
          "internalType": "uint16",
          "name": "_interestRate",
          "type": "uint16"
        }
      ],
      "stateMutability": "nonpayable",
      "type": "constructor"
    },
    {
      "inputs": [
        {
          "internalType": "address",
          "name": "target",
          "type": "address"
        }
      ],
      "name": "AddressEmptyCode",
      "type": "error"
    },
    {
      "inputs": [
        {
          "internalType": "address",
          "name": "account",
          "type": "address"
        }
      ],
      "name": "AddressInsufficientBalance",
      "type": "error"
    },
    {
      "inputs": [],
      "name": "FailedInnerCall",
      "type": "error"
    },
    {
      "inputs": [
        {
          "internalType": "address",
          "name": "owner",
          "type": "address"
        }
      ],
      "name": "OwnableInvalidOwner",
      "type": "error"
    },
    {
      "inputs": [
        {
          "internalType": "address",
          "name": "account",
          "type": "address"
        }
      ],
      "name": "OwnableUnauthorizedAccount",
      "type": "error"
    },
    {
      "inputs": [],
      "name": "ReentrancyGuardReentrantCall",
      "type": "error"
    },
    {
      "inputs": [
        {
          "internalType": "address",
          "name": "token",
          "type": "address"
        }
      ],
      "name": "SafeERC20FailedOperation",
      "type": "error"
    },
    {
      "anonymous": false,
      "inputs": [
        {
          "indexed": false,
          "internalType": "address",
          "name": "lender",
          "type": "address"
        },
        {
          "indexed": false,
          "internalType": "address",
          "name": "nftContract",
          "type": "address"
        },
        {
          "indexed": false,
          "internalType": "uint256",
          "name": "tokenId",
          "type": "uint256"
        }
      ],
      "name": "CollateralClaimed",
      "type": "event"
    },
    {
      "anonymous": false,
      "inputs": [
        {
          "indexed": true,
          "internalType": "uint256",
          "name": "loanId",
          "type": "uint256"
        },
        {
          "indexed": false,
          "internalType": "uint256",
          "name": "amount",
          "type": "uint256"
        },
        {
          "indexed": true,
          "internalType": "address",
          "name": "borrower",
          "type": "address"
        },
        {
          "indexed": true,
          "internalType": "address",
          "name": "nftContract",
          "type": "address"
        },
        {
          "indexed": false,
          "internalType": "uint256",
          "name": "nftTokenId",
          "type": "uint256"
        }
      ],
      "name": "LoanCreated",
      "type": "event"
    },
    {
      "anonymous": false,
      "inputs": [
        {
          "indexed": true,
          "internalType": "uint256",
          "name": "loanId",
          "type": "uint256"
        },
        {
          "indexed": true,
          "internalType": "address",
          "name": "funder",
          "type": "address"
        },
        {
          "indexed": false,
          "internalType": "uint256",
          "name": "amount",
          "type": "uint256"
        }
      ],
      "name": "LoanFunded",
      "type": "event"
    },
    {
      "anonymous": false,
      "inputs": [
        {
          "indexed": true,
          "internalType": "uint256",
          "name": "loanId",
          "type": "uint256"
        },
        {
          "indexed": true,
          "internalType": "address",
          "name": "borrower",
          "type": "address"
        },
        {
          "indexed": false,
          "internalType": "uint256",
          "name": "amount",
          "type": "uint256"
        }
      ],
      "name": "LoanRepaid",
      "type": "event"
    },
    {
      "anonymous": false,
      "inputs": [
        {
          "indexed": true,
          "internalType": "address",
          "name": "previousOwner",
          "type": "address"
        },
        {
          "indexed": true,
          "internalType": "address",
          "name": "newOwner",
          "type": "address"
        }
      ],
      "name": "OwnershipTransferred",
      "type": "event"
    },
    {
      "inputs": [],
      "name": "LOAN_DURATION",
      "outputs": [
        {
          "internalType": "uint256",
          "name": "",
          "type": "uint256"
        }
      ],
      "stateMutability": "view",
      "type": "function"
    },
    {
      "inputs": [
        {
          "internalType": "uint256",
          "name": "_loanId",
          "type": "uint256"
        }
      ],
      "name": "claimCollateral",
      "outputs": [],
      "stateMutability": "nonpayable",
      "type": "function"
    },
    {
      "inputs": [
        {
          "internalType": "uint256",
          "name": "_amount",
          "type": "uint256"
        },
        {
          "internalType": "address",
          "name": "_nftAddress",
          "type": "address"
        },
        {
          "internalType": "uint256",
          "name": "_nftTokenId",
          "type": "uint256"
        },
        {
          "internalType": "uint256",
          "name": "_nftPrice",
          "type": "uint256"
        }
      ],
      "name": "createLoan",
      "outputs": [
        {
          "internalType": "uint256",
          "name": "",
          "type": "uint256"
        }
      ],
      "stateMutability": "nonpayable",
      "type": "function"
    },
    {
      "inputs": [
        {
          "internalType": "uint256",
          "name": "_loanId",
          "type": "uint256"
        }
      ],
      "name": "fundLoan",
      "outputs": [],
      "stateMutability": "nonpayable",
      "type": "function"
    },
    {
      "inputs": [
        {
          "internalType": "uint256",
          "name": "_loanId",
          "type": "uint256"
        }
      ],
      "name": "getLoanInfo",
      "outputs": [
        {
          "components": [
            {
              "internalType": "address",
              "name": "borrower",
              "type": "address"
            },
            {
              "internalType": "uint256",
              "name": "amount",
              "type": "uint256"
            },
            {
              "internalType": "address",
              "name": "nftContract",
              "type": "address"
            },
            {
              "internalType": "uint256",
              "name": "nftTokenId",
              "type": "uint256"
            },
            {
              "internalType": "address payable",
              "name": "lender",
              "type": "address"
            },
            {
              "internalType": "uint256",
              "name": "dueDate",
              "type": "uint256"
            },
            {
              "internalType": "enum LendingBorrowing.LoanStatus",
              "name": "status",
              "type": "uint8"
            }
          ],
          "internalType": "struct LendingBorrowing.Loan",
          "name": "",
          "type": "tuple"
        }
      ],
      "stateMutability": "view",
      "type": "function"
    },
    {
      "inputs": [
        {
          "internalType": "uint256",
          "name": "_amount",
          "type": "uint256"
        }
      ],
      "name": "getRepaymentAmount",
      "outputs": [
        {
          "internalType": "uint256",
          "name": "",
          "type": "uint256"
        }
      ],
      "stateMutability": "view",
      "type": "function"
    },
    {
      "inputs": [],
      "name": "lendingToken",
      "outputs": [
        {
          "internalType": "contract IERC20",
          "name": "",
          "type": "address"
        }
      ],
      "stateMutability": "view",
      "type": "function"
    },
    {
      "inputs": [],
      "name": "loanCount",
      "outputs": [
        {
          "internalType": "uint256",
          "name": "",
          "type": "uint256"
        }
      ],
      "stateMutability": "view",
      "type": "function"
    },
    {
      "inputs": [
        {
          "internalType": "uint256",
          "name": "",
          "type": "uint256"
        }
      ],
      "name": "loans",
      "outputs": [
        {
          "internalType": "address",
          "name": "borrower",
          "type": "address"
        },
        {
          "internalType": "uint256",
          "name": "amount",
          "type": "uint256"
        },
        {
          "internalType": "address",
          "name": "nftContract",
          "type": "address"
        },
        {
          "internalType": "uint256",
          "name": "nftTokenId",
          "type": "uint256"
        },
        {
          "internalType": "address payable",
          "name": "lender",
          "type": "address"
        },
        {
          "internalType": "uint256",
          "name": "dueDate",
          "type": "uint256"
        },
        {
          "internalType": "enum LendingBorrowing.LoanStatus",
          "name": "status",
          "type": "uint8"
        }
      ],
      "stateMutability": "view",
      "type": "function"
    },
    {
      "inputs": [
        {
          "internalType": "address",
          "name": "",
          "type": "address"
        },
        {
          "internalType": "address",
          "name": "",
          "type": "address"
        },
        {
          "internalType": "uint256",
          "name": "",
          "type": "uint256"
        },
        {
          "internalType": "bytes",
          "name": "",
          "type": "bytes"
        }
      ],
      "name": "onERC721Received",
      "outputs": [
        {
          "internalType": "bytes4",
          "name": "",
          "type": "bytes4"
        }
      ],
      "stateMutability": "nonpayable",
      "type": "function"
    },
    {
      "inputs": [],
      "name": "owner",
      "outputs": [
        {
          "internalType": "address",
          "name": "",
          "type": "address"
        }
      ],
      "stateMutability": "view",
      "type": "function"
    },
    {
      "inputs": [],
      "name": "renounceOwnership",
      "outputs": [],
      "stateMutability": "nonpayable",
      "type": "function"
    },
    {
      "inputs": [
        {
          "internalType": "uint256",
          "name": "_loanId",
          "type": "uint256"
        }
      ],
      "name": "repayLoan",
      "outputs": [],
      "stateMutability": "nonpayable",
      "type": "function"
    },
    {
      "inputs": [
        {
          "internalType": "uint16",
          "name": "_newInterestRate",
          "type": "uint16"
        }
      ],
      "name": "setInterestRate",
      "outputs": [],
      "stateMutability": "nonpayable",
      "type": "function"
    },
    {
      "inputs": [
        {
          "internalType": "address",
          "name": "newOwner",
          "type": "address"
        }
      ],
      "name": "transferOwnership",
      "outputs": [],
      "stateMutability": "nonpayable",
      "type": "function"
    }
  ],
  "bytecode": "0x60806040523480156200001157600080fd5b5060405162002b9f38038062002b9f83398181016040528101906200003791906200029c565b336001600081905550600073ffffffffffffffffffffffffffffffffffffffff168173ffffffffffffffffffffffffffffffffffffffff1603620000b55760006040517f1e4fbdf7000000000000000000000000000000000000000000000000000000008152600401620000ac9190620002f4565b60405180910390fd5b620000c6816200012d60201b60201c565b5081600260006101000a81548173ffffffffffffffffffffffffffffffffffffffff021916908373ffffffffffffffffffffffffffffffffffffffff16021790555080600460006101000a81548161ffff021916908361ffff160217905550505062000311565b6000600160009054906101000a900473ffffffffffffffffffffffffffffffffffffffff16905081600160006101000a81548173ffffffffffffffffffffffffffffffffffffffff021916908373ffffffffffffffffffffffffffffffffffffffff1602179055508173ffffffffffffffffffffffffffffffffffffffff168173ffffffffffffffffffffffffffffffffffffffff167f8be0079c531659141344cd1fd0a4f28419497f9722a3daafe3b4186f6b6457e060405160405180910390a35050565b600080fd5b600073ffffffffffffffffffffffffffffffffffffffff82169050919050565b60006200022582620001f8565b9050919050565b620002378162000218565b81146200024357600080fd5b50565b60008151905062000257816200022c565b92915050565b600061ffff82169050919050565b62000276816200025d565b81146200028257600080fd5b50565b60008151905062000296816200026b565b92915050565b60008060408385031215620002b657620002b5620001f3565b5b6000620002c68582860162000246565b9250506020620002d98582860162000285565b9150509250929050565b620002ee8162000218565b82525050565b60006020820190506200030b6000830184620002e3565b92915050565b61287e80620003216000396000f3fe608060405234801561001057600080fd5b50600436106100f55760003560e01c80638da5cb5b11610097578063ce63094d11610066578063ce63094d14610270578063e02a4dfd1461028e578063e1ec3c68146102ac578063f2fde38b146102e2576100f5565b80638da5cb5b146101fc578063aaaca5581461021a578063ab7b1c8914610238578063c49785b414610254576100f5565b80632829cec0116100d35780632829cec01461018a57806370507706146101ba578063715018a6146101d6578063846b909a146101e0576100f5565b80630714012c146100fa578063150b7a021461012a5780632210532b1461015a575b600080fd5b610114600480360381019061010f9190611aec565b6102fe565b6040516101219190611c8f565b60405180910390f35b610144600480360381019061013f9190611d3b565b61048c565b6040516101519190611dfe565b60405180910390f35b610174600480360381019061016f9190611aec565b6104a1565b6040516101819190611e28565b60405180910390f35b6101a4600480360381019061019f9190611e43565b6104e1565b6040516101b19190611e28565b60405180910390f35b6101d460048036038101906101cf9190611ee4565b61092f565b005b6101de610957565b005b6101fa60048036038101906101f59190611aec565b61096b565b005b610204610c41565b6040516102119190611f20565b60405180910390f35b610222610c6b565b60405161022f9190611f9a565b60405180910390f35b610252600480360381019061024d9190611aec565b610c91565b005b61026e60048036038101906102699190611aec565b611099565b005b610278611464565b6040516102859190611e28565b60405180910390f35b61029661146a565b6040516102a39190611e28565b60405180910390f35b6102c660048036038101906102c19190611aec565b611471565b6040516102d99796959493929190611fd3565b60405180910390f35b6102fc60048036038101906102f79190612042565b611520565b005b610306611a1b565b6000600560008481526020019081526020016000206040518060e00160405290816000820160009054906101000a900473ffffffffffffffffffffffffffffffffffffffff1673ffffffffffffffffffffffffffffffffffffffff1673ffffffffffffffffffffffffffffffffffffffff168152602001600182015481526020016002820160009054906101000a900473ffffffffffffffffffffffffffffffffffffffff1673ffffffffffffffffffffffffffffffffffffffff1673ffffffffffffffffffffffffffffffffffffffff168152602001600382015481526020016004820160009054906101000a900473ffffffffffffffffffffffffffffffffffffffff1673ffffffffffffffffffffffffffffffffffffffff1673ffffffffffffffffffffffffffffffffffffffff168152602001600582015481526020016006820160009054906101000a900460ff16600481111561046b5761046a611b8a565b5b600481111561047d5761047c611b8a565b5b81525050905080915050919050565b600063150b7a0260e01b905095945050505050565b60006064600460009054906101000a900461ffff1661ffff16836104c5919061209e565b6104cf919061210f565b826104da9190612140565b9050919050565b60006104eb6115a6565b3373ffffffffffffffffffffffffffffffffffffffff168473ffffffffffffffffffffffffffffffffffffffff16636352211e856040518263ffffffff1660e01b815260040161053b9190611e28565b602060405180830381865afa158015610558573d6000803e3d6000fd5b505050506040513d601f19601f8201168201806040525081019061057c9190612189565b73ffffffffffffffffffffffffffffffffffffffff16146105d2576040517f08c379a00000000000000000000000000000000000000000000000000000000081526004016105c990612213565b60405180910390fd5b6000851180156105e25750818511155b610621576040517f08c379a0000000000000000000000000000000000000000000000000000000008152600401610618906122a5565b60405180910390fd5b3073ffffffffffffffffffffffffffffffffffffffff168473ffffffffffffffffffffffffffffffffffffffff1663081812fc856040518263ffffffff1660e01b81526004016106719190611e28565b602060405180830381865afa15801561068e573d6000803e3d6000fd5b505050506040513d601f19601f820116820180604052508101906106b29190612189565b73ffffffffffffffffffffffffffffffffffffffff1614610708576040517f08c379a00000000000000000000000000000000000000000000000000000000081526004016106ff90612337565b60405180910390fd5b8373ffffffffffffffffffffffffffffffffffffffff166342842e0e3330866040518463ffffffff1660e01b815260040161074593929190612357565b600060405180830381600087803b15801561075f57600080fd5b505af1158015610773573d6000803e3d6000fd5b5050505060006003600081548092919061078c9061238e565b9190505590506000600560008381526020019081526020016000209050338160000160006101000a81548173ffffffffffffffffffffffffffffffffffffffff021916908373ffffffffffffffffffffffffffffffffffffffff160217905550868160010181905550858160020160006101000a81548173ffffffffffffffffffffffffffffffffffffffff021916908373ffffffffffffffffffffffffffffffffffffffff16021790555084816003018190555060008160040160006101000a81548173ffffffffffffffffffffffffffffffffffffffff021916908373ffffffffffffffffffffffffffffffffffffffff16021790555060008160060160006101000a81548160ff021916908360048111156108ad576108ac611b8a565b5b02179055508573ffffffffffffffffffffffffffffffffffffffff163373ffffffffffffffffffffffffffffffffffffffff16837fec926f063e0466751bf68c0a9b95fdf34abcbdc487c5cf1bcee4bf02c41d0e6f8a896040516109129291906123d6565b60405180910390a481925050506109276115ec565b949350505050565b6109376115f6565b80600460006101000a81548161ffff021916908361ffff16021790555050565b61095f6115f6565b610969600061167d565b565b6109736115a6565b60006005600083815260200190815260200160002090506000600481111561099e5761099d611b8a565b5b8160060160009054906101000a900460ff1660048111156109c2576109c1611b8a565b5b14610a02576040517f08c379a00000000000000000000000000000000000000000000000000000000081526004016109f99061244b565b60405180910390fd5b8060010154600260009054906101000a900473ffffffffffffffffffffffffffffffffffffffff1673ffffffffffffffffffffffffffffffffffffffff166370a08231336040518263ffffffff1660e01b8152600401610a629190611f20565b602060405180830381865afa158015610a7f573d6000803e3d6000fd5b505050506040513d601f19601f82011682018060405250810190610aa39190612480565b1015610ae4576040517f08c379a0000000000000000000000000000000000000000000000000000000008152600401610adb906124f9565b60405180910390fd5b610b5b338260000160009054906101000a900473ffffffffffffffffffffffffffffffffffffffff168360010154600260009054906101000a900473ffffffffffffffffffffffffffffffffffffffff1673ffffffffffffffffffffffffffffffffffffffff16611743909392919063ffffffff16565b62278d0042610b6a9190612140565b8160050181905550338160040160006101000a81548173ffffffffffffffffffffffffffffffffffffffff021916908373ffffffffffffffffffffffffffffffffffffffff16021790555060018160060160006101000a81548160ff02191690836004811115610bdd57610bdc611b8a565b5b02179055503373ffffffffffffffffffffffffffffffffffffffff16827fbd7ef6c6281278f6c8ac4ae9ef2f205b52425813c288dd47c377cb6b59c5076e8360010154604051610c2d9190611e28565b60405180910390a350610c3e6115ec565b50565b6000600160009054906101000a900473ffffffffffffffffffffffffffffffffffffffff16905090565b600260009054906101000a900473ffffffffffffffffffffffffffffffffffffffff1681565b610c996115a6565b60006005600083815260200190815260200160002090506005600083815260200190815260200160002060000160009054906101000a900473ffffffffffffffffffffffffffffffffffffffff1673ffffffffffffffffffffffffffffffffffffffff163373ffffffffffffffffffffffffffffffffffffffff1614610d54576040517f08c379a0000000000000000000000000000000000000000000000000000000008152600401610d4b9061258b565b60405180910390fd5b60016004811115610d6857610d67611b8a565b5b8160060160009054906101000a900460ff166004811115610d8c57610d8b611b8a565b5b14610dcc576040517f08c379a0000000000000000000000000000000000000000000000000000000008152600401610dc3906125f7565b60405180910390fd5b4281600501541015610e13576040517f08c379a0000000000000000000000000000000000000000000000000000000008152600401610e0a90612663565b60405180910390fd5b6000610e2282600101546104a1565b905080600260009054906101000a900473ffffffffffffffffffffffffffffffffffffffff1673ffffffffffffffffffffffffffffffffffffffff166370a08231336040518263ffffffff1660e01b8152600401610e809190611f20565b602060405180830381865afa158015610e9d573d6000803e3d6000fd5b505050506040513d601f19601f82011682018060405250810190610ec19190612480565b1015610f02576040517f08c379a0000000000000000000000000000000000000000000000000000000008152600401610ef9906124f9565b60405180910390fd5b610f75338360040160009054906101000a900473ffffffffffffffffffffffffffffffffffffffff1683600260009054906101000a900473ffffffffffffffffffffffffffffffffffffffff1673ffffffffffffffffffffffffffffffffffffffff16611743909392919063ffffffff16565b8160020160009054906101000a900473ffffffffffffffffffffffffffffffffffffffff1673ffffffffffffffffffffffffffffffffffffffff166323b872dd303385600301546040518463ffffffff1660e01b8152600401610fda93929190612357565b600060405180830381600087803b158015610ff457600080fd5b505af1158015611008573d6000803e3d6000fd5b5050505060028260060160006101000a81548160ff0219169083600481111561103457611033611b8a565b5b02179055503373ffffffffffffffffffffffffffffffffffffffff16837f512d3e65b3e58c2187bb1872aa435dba5bd09c1c03823ba56ab70aac411e4a2184600101546040516110849190611e28565b60405180910390a350506110966115ec565b50565b6110a16115a6565b6000600560008381526020019081526020016000209050600060048111156110cc576110cb611b8a565b5b8160060160009054906101000a900460ff1660048111156110f0576110ef611b8a565b5b03611250578060000160009054906101000a900473ffffffffffffffffffffffffffffffffffffffff1673ffffffffffffffffffffffffffffffffffffffff163373ffffffffffffffffffffffffffffffffffffffff1614611187576040517f08c379a000000000000000000000000000000000000000000000000000000000815260040161117e906126cf565b60405180910390fd5b8060020160009054906101000a900473ffffffffffffffffffffffffffffffffffffffff1673ffffffffffffffffffffffffffffffffffffffff166323b872dd303384600301546040518463ffffffff1660e01b81526004016111ec93929190612357565b600060405180830381600087803b15801561120657600080fd5b505af115801561121a573d6000803e3d6000fd5b5050505060048160060160006101000a81548160ff0219169083600481111561124657611245611b8a565b5b02179055506113f5565b6001600481111561126457611263611b8a565b5b8160060160009054906101000a900460ff16600481111561128857611287611b8a565b5b1480156112985750806005015442115b156113f4578060040160009054906101000a900473ffffffffffffffffffffffffffffffffffffffff1673ffffffffffffffffffffffffffffffffffffffff163373ffffffffffffffffffffffffffffffffffffffff161461132f576040517f08c379a00000000000000000000000000000000000000000000000000000000081526004016113269061273b565b60405180910390fd5b8060020160009054906101000a900473ffffffffffffffffffffffffffffffffffffffff1673ffffffffffffffffffffffffffffffffffffffff166323b872dd303384600301546040518463ffffffff1660e01b815260040161139493929190612357565b600060405180830381600087803b1580156113ae57600080fd5b505af11580156113c2573d6000803e3d6000fd5b5050505060038160060160006101000a81548160ff021916908360048111156113ee576113ed611b8a565b5b02179055505b5b7f03cae5b1bc6b42fb9aee426a517b060eaeb2be232c390b3b133823ea654b5d3b338260020160009054906101000a900473ffffffffffffffffffffffffffffffffffffffff16836003015460405161145093929190612357565b60405180910390a1506114616115ec565b50565b60035481565b62278d0081565b60056020528060005260406000206000915090508060000160009054906101000a900473ffffffffffffffffffffffffffffffffffffffff16908060010154908060020160009054906101000a900473ffffffffffffffffffffffffffffffffffffffff16908060030154908060040160009054906101000a900473ffffffffffffffffffffffffffffffffffffffff16908060050154908060060160009054906101000a900460ff16905087565b6115286115f6565b600073ffffffffffffffffffffffffffffffffffffffff168173ffffffffffffffffffffffffffffffffffffffff160361159a5760006040517f1e4fbdf70000000000000000000000000000000000000000000000000000000081526004016115919190611f20565b60405180910390fd5b6115a38161167d565b50565b6002600054036115e2576040517f3ee5aeb500000000000000000000000000000000000000000000000000000000815260040160405180910390fd5b6002600081905550565b6001600081905550565b6115fe6117c5565b73ffffffffffffffffffffffffffffffffffffffff1661161c610c41565b73ffffffffffffffffffffffffffffffffffffffff161461167b5761163f6117c5565b6040517f118cdaa70000000000000000000000000000000000000000000000000000000081526004016116729190611f20565b60405180910390fd5b565b6000600160009054906101000a900473ffffffffffffffffffffffffffffffffffffffff16905081600160006101000a81548173ffffffffffffffffffffffffffffffffffffffff021916908373ffffffffffffffffffffffffffffffffffffffff1602179055508173ffffffffffffffffffffffffffffffffffffffff168173ffffffffffffffffffffffffffffffffffffffff167f8be0079c531659141344cd1fd0a4f28419497f9722a3daafe3b4186f6b6457e060405160405180910390a35050565b6117bf848573ffffffffffffffffffffffffffffffffffffffff166323b872dd86868660405160240161177893929190612357565b604051602081830303815290604052915060e01b6020820180517bffffffffffffffffffffffffffffffffffffffffffffffffffffffff83818316178352505050506117cd565b50505050565b600033905090565b60006117f8828473ffffffffffffffffffffffffffffffffffffffff1661186490919063ffffffff16565b9050600081511415801561181d57508080602001905181019061181b9190612793565b155b1561185f57826040517f5274afe70000000000000000000000000000000000000000000000000000000081526004016118569190611f20565b60405180910390fd5b505050565b60606118728383600061187a565b905092915050565b6060814710156118c157306040517fcd7860590000000000000000000000000000000000000000000000000000000081526004016118b89190611f20565b60405180910390fd5b6000808573ffffffffffffffffffffffffffffffffffffffff1684866040516118ea9190612831565b60006040518083038185875af1925050503d8060008114611927576040519150601f19603f3d011682016040523d82523d6000602084013e61192c565b606091505b509150915061193c868383611947565b925050509392505050565b60608261195c57611957826119d6565b6119ce565b60008251148015611984575060008473ffffffffffffffffffffffffffffffffffffffff163b145b156119c657836040517f9996b3150000000000000000000000000000000000000000000000000000000081526004016119bd9190611f20565b60405180910390fd5b8190506119cf565b5b9392505050565b6000815111156119e95780518082602001fd5b6040517f1425ea4200000000000000000000000000000000000000000000000000000000815260040160405180910390fd5b6040518060e00160405280600073ffffffffffffffffffffffffffffffffffffffff16815260200160008152602001600073ffffffffffffffffffffffffffffffffffffffff16815260200160008152602001600073ffffffffffffffffffffffffffffffffffffffff1681526020016000815260200160006004811115611aa657611aa5611b8a565b5b81525090565b600080fd5b600080fd5b6000819050919050565b611ac981611ab6565b8114611ad457600080fd5b50565b600081359050611ae681611ac0565b92915050565b600060208284031215611b0257611b01611aac565b5b6000611b1084828501611ad7565b91505092915050565b600073ffffffffffffffffffffffffffffffffffffffff82169050919050565b6000611b4482611b19565b9050919050565b611b5481611b39565b82525050565b611b6381611ab6565b82525050565b6000611b7482611b19565b9050919050565b611b8481611b69565b82525050565b7f4e487b7100000000000000000000000000000000000000000000000000000000600052602160045260246000fd5b60058110611bca57611bc9611b8a565b5b50565b6000819050611bdb82611bb9565b919050565b6000611beb82611bcd565b9050919050565b611bfb81611be0565b82525050565b60e082016000820151611c176000850182611b4b565b506020820151611c2a6020850182611b5a565b506040820151611c3d6040850182611b4b565b506060820151611c506060850182611b5a565b506080820151611c636080850182611b7b565b5060a0820151611c7660a0850182611b5a565b5060c0820151611c8960c0850182611bf2565b50505050565b600060e082019050611ca46000830184611c01565b92915050565b611cb381611b39565b8114611cbe57600080fd5b50565b600081359050611cd081611caa565b92915050565b600080fd5b600080fd5b600080fd5b60008083601f840112611cfb57611cfa611cd6565b5b8235905067ffffffffffffffff811115611d1857611d17611cdb565b5b602083019150836001820283011115611d3457611d33611ce0565b5b9250929050565b600080600080600060808688031215611d5757611d56611aac565b5b6000611d6588828901611cc1565b9550506020611d7688828901611cc1565b9450506040611d8788828901611ad7565b935050606086013567ffffffffffffffff811115611da857611da7611ab1565b5b611db488828901611ce5565b92509250509295509295909350565b60007fffffffff0000000000000000000000000000000000000000000000000000000082169050919050565b611df881611dc3565b82525050565b6000602082019050611e136000830184611def565b92915050565b611e2281611ab6565b82525050565b6000602082019050611e3d6000830184611e19565b92915050565b60008060008060808587031215611e5d57611e5c611aac565b5b6000611e6b87828801611ad7565b9450506020611e7c87828801611cc1565b9350506040611e8d87828801611ad7565b9250506060611e9e87828801611ad7565b91505092959194509250565b600061ffff82169050919050565b611ec181611eaa565b8114611ecc57600080fd5b50565b600081359050611ede81611eb8565b92915050565b600060208284031215611efa57611ef9611aac565b5b6000611f0884828501611ecf565b91505092915050565b611f1a81611b39565b82525050565b6000602082019050611f356000830184611f11565b92915050565b6000819050919050565b6000611f60611f5b611f5684611b19565b611f3b565b611b19565b9050919050565b6000611f7282611f45565b9050919050565b6000611f8482611f67565b9050919050565b611f9481611f79565b82525050565b6000602082019050611faf6000830184611f8b565b92915050565b611fbe81611b69565b82525050565b611fcd81611be0565b82525050565b600060e082019050611fe8600083018a611f11565b611ff56020830189611e19565b6120026040830188611f11565b61200f6060830187611e19565b61201c6080830186611fb5565b61202960a0830185611e19565b61203660c0830184611fc4565b98975050505050505050565b60006020828403121561205857612057611aac565b5b600061206684828501611cc1565b91505092915050565b7f4e487b7100000000000000000000000000000000000000000000000000000000600052601160045260246000fd5b60006120a982611ab6565b91506120b483611ab6565b92508282026120c281611ab6565b915082820484148315176120d9576120d861206f565b5b5092915050565b7f4e487b7100000000000000000000000000000000000000000000000000000000600052601260045260246000fd5b600061211a82611ab6565b915061212583611ab6565b925082612135576121346120e0565b5b828204905092915050565b600061214b82611ab6565b915061215683611ab6565b925082820190508082111561216e5761216d61206f565b5b92915050565b60008151905061218381611caa565b92915050565b60006020828403121561219f5761219e611aac565b5b60006121ad84828501612174565b91505092915050565b600082825260208201905092915050565b7f4e6f74206f776e6572206f66204e46542e000000000000000000000000000000600082015250565b60006121fd6011836121b6565b9150612208826121c7565b602082019050919050565b6000602082019050818103600083015261222c816121f0565b9050919050565b7f4e465420636f6c6c61746572616c2076616c7565206c657373207468616e206c60008201527f6f616e2e00000000000000000000000000000000000000000000000000000000602082015250565b600061228f6024836121b6565b915061229a82612233565b604082019050919050565b600060208201905081810360008301526122be81612282565b9050919050565b7f436f6e7472616374206e6f7420617070726f76656420666f722068616e646c6960008201527f6e67204e46542e00000000000000000000000000000000000000000000000000602082015250565b60006123216027836121b6565b915061232c826122c5565b604082019050919050565b6000602082019050818103600083015261235081612314565b9050919050565b600060608201905061236c6000830186611f11565b6123796020830185611f11565b6123866040830184611e19565b949350505050565b600061239982611ab6565b91507fffffffffffffffffffffffffffffffffffffffffffffffffffffffffffffffff82036123cb576123ca61206f565b5b600182019050919050565b60006040820190506123eb6000830185611e19565b6123f86020830184611e19565b9392505050565b7f4c6f616e206973206e6f74206163746976650000000000000000000000000000600082015250565b60006124356012836121b6565b9150612440826123ff565b602082019050919050565b6000602082019050818103600083015261246481612428565b9050919050565b60008151905061247a81611ac0565b92915050565b60006020828403121561249657612495611aac565b5b60006124a48482850161246b565b91505092915050565b7f496e73756666696369656e742066756e64730000000000000000000000000000600082015250565b60006124e36012836121b6565b91506124ee826124ad565b602082019050919050565b60006020820190508181036000830152612512816124d6565b9050919050565b7f4f6e6c792074686520626f72726f7765722063616e20706572666f726d20746860008201527f697320616374696f6e0000000000000000000000000000000000000000000000602082015250565b60006125756029836121b6565b915061258082612519565b604082019050919050565b600060208201905081810360008301526125a481612568565b9050919050565b7f496e76616c6964206c6f616e207374617475732e000000000000000000000000600082015250565b60006125e16014836121b6565b91506125ec826125ab565b602082019050919050565b60006020820190508181036000830152612610816125d4565b9050919050565b7f50617374206c6f616e2064756520646174652e00000000000000000000000000600082015250565b600061264d6013836121b6565b915061265882612617565b602082019050919050565b6000602082019050818103600083015261267c81612640565b9050919050565b7f4e6f7420626f72726f7765722e00000000000000000000000000000000000000600082015250565b60006126b9600d836121b6565b91506126c482612683565b602082019050919050565b600060208201905081810360008301526126e8816126ac565b9050919050565b7f4e6f74206c656e6465722e000000000000000000000000000000000000000000600082015250565b6000612725600b836121b6565b9150612730826126ef565b602082019050919050565b6000602082019050818103600083015261275481612718565b9050919050565b60008115159050919050565b6127708161275b565b811461277b57600080fd5b50565b60008151905061278d81612767565b92915050565b6000602082840312156127a9576127a8611aac565b5b60006127b78482850161277e565b91505092915050565b600081519050919050565b600081905092915050565b60005b838110156127f45780820151818401526020810190506127d9565b60008484015250505050565b600061280b826127c0565b61281581856127cb565b93506128258185602086016127d6565b80840191505092915050565b600061283d8284612800565b91508190509291505056fea264697066735822122010aa3e7b3dd8b50362d09c7aa3b55259954152cf64520dddc9aaeb4abaa4b8b064736f6c63430008180033",
  "linkReferences": {},
  "deployedLinkReferences": {}
}