{
  "_format": "hh-sol-artifact-1",
  "contractName": "SimpleLending",
  "sourceName": "contracts/SimpleLending.sol",
  "abi": [
    {
      "inputs": [
        {
          "internalType": "address",
          "name": "_lendingToken",
          "type": "address"
        },
        {
          "internalType": "address",
          "name": "_nftContract",
          "type": "address"
        }
      ],
      "stateMutability": "nonpayable",
      "type": "constructor"
    },
    {
      "inputs": [],
      "name": "ReentrancyGuardReentrantCall",
      "type": "error"
    },
    {
      "anonymous": false,
      "inputs": [
        {
          "indexed": false,
          "internalType": "address",
          "name": "lender",
          "type": "address"
        },
        {
          "indexed": false,
          "internalType": "uint256",
          "name": "tokenId",
          "type": "uint256"
        }
      ],
      "name": "CollateralClaimed",
      "type": "event"
    },
    {
      "anonymous": false,
      "inputs": [
        {
          "indexed": false,
          "internalType": "address",
          "name": "borrower",
          "type": "address"
        },
        {
          "indexed": false,
          "internalType": "uint256",
          "name": "tokenId",
          "type": "uint256"
        },
        {
          "indexed": false,
          "internalType": "uint256",
          "name": "amount",
          "type": "uint256"
        }
      ],
      "name": "LoanCreated",
      "type": "event"
    },
    {
      "anonymous": false,
      "inputs": [
        {
          "indexed": false,
          "internalType": "address",
          "name": "borrower",
          "type": "address"
        },
        {
          "indexed": false,
          "internalType": "uint256",
          "name": "tokenId",
          "type": "uint256"
        }
      ],
      "name": "LoanRepaid",
      "type": "event"
    },
    {
      "inputs": [],
      "name": "LOAN_DURATION",
      "outputs": [
        {
          "internalType": "uint256",
          "name": "",
          "type": "uint256"
        }
      ],
      "stateMutability": "view",
      "type": "function"
    },
    {
      "inputs": [],
      "name": "LOAN_INTEREST_RATE",
      "outputs": [
        {
          "internalType": "uint256",
          "name": "",
          "type": "uint256"
        }
      ],
      "stateMutability": "view",
      "type": "function"
    },
    {
      "inputs": [
        {
          "internalType": "uint256",
          "name": "tokenId",
          "type": "uint256"
        },
        {
          "internalType": "uint256",
          "name": "amount",
          "type": "uint256"
        }
      ],
      "name": "borrowAgainstNFT",
      "outputs": [],
      "stateMutability": "nonpayable",
      "type": "function"
    },
    {
      "inputs": [
        {
          "internalType": "uint256",
          "name": "amount",
          "type": "uint256"
        }
      ],
      "name": "calculateRepaymentAmount",
      "outputs": [
        {
          "internalType": "uint256",
          "name": "",
          "type": "uint256"
        }
      ],
      "stateMutability": "pure",
      "type": "function"
    },
    {
      "inputs": [
        {
          "internalType": "uint256",
          "name": "tokenId",
          "type": "uint256"
        }
      ],
      "name": "claimCollateral",
      "outputs": [],
      "stateMutability": "nonpayable",
      "type": "function"
    },
    {
      "inputs": [],
      "name": "lendingToken",
      "outputs": [
        {
          "internalType": "contract IERC20",
          "name": "",
          "type": "address"
        }
      ],
      "stateMutability": "view",
      "type": "function"
    },
    {
      "inputs": [
        {
          "internalType": "uint256",
          "name": "",
          "type": "uint256"
        }
      ],
      "name": "loans",
      "outputs": [
        {
          "internalType": "address",
          "name": "borrower",
          "type": "address"
        },
        {
          "internalType": "uint256",
          "name": "amount",
          "type": "uint256"
        },
        {
          "internalType": "uint256",
          "name": "dueDate",
          "type": "uint256"
        },
        {
          "internalType": "bool",
          "name": "repaid",
          "type": "bool"
        }
      ],
      "stateMutability": "view",
      "type": "function"
    },
    {
      "inputs": [],
      "name": "nftContract",
      "outputs": [
        {
          "internalType": "contract IERC721",
          "name": "",
          "type": "address"
        }
      ],
      "stateMutability": "view",
      "type": "function"
    },
    {
      "inputs": [
        {
          "internalType": "uint256",
          "name": "tokenId",
          "type": "uint256"
        }
      ],
      "name": "repayLoan",
      "outputs": [],
      "stateMutability": "nonpayable",
      "type": "function"
    }
  ],
  "bytecode": "0x60806040523480156200001157600080fd5b506040516200157238038062001572833981810160405281019062000037919062000133565b600160008190555081600160006101000a81548173ffffffffffffffffffffffffffffffffffffffff021916908373ffffffffffffffffffffffffffffffffffffffff16021790555080600260006101000a81548173ffffffffffffffffffffffffffffffffffffffff021916908373ffffffffffffffffffffffffffffffffffffffff16021790555050506200017a565b600080fd5b600073ffffffffffffffffffffffffffffffffffffffff82169050919050565b6000620000fb82620000ce565b9050919050565b6200010d81620000ee565b81146200011957600080fd5b50565b6000815190506200012d8162000102565b92915050565b600080604083850312156200014d576200014c620000c9565b5b60006200015d858286016200011c565b925050602062000170858286016200011c565b9150509250929050565b6113e8806200018a6000396000f3fe608060405234801561001057600080fd5b50600436106100935760003560e01c8063c49785b411610066578063c49785b414610120578063d56d229d1461013c578063e02a4dfd1461015a578063e1ec3c6814610178578063ec651494146101ab57610093565b806308ca261514610098578063aaaca558146100b6578063ab7b1c89146100d4578063b1197239146100f0575b600080fd5b6100a06101c7565b6040516100ad9190610be3565b60405180910390f35b6100be6101cc565b6040516100cb9190610c7d565b60405180910390f35b6100ee60048036038101906100e99190610cc9565b6101f2565b005b61010a60048036038101906101059190610cc9565b6104db565b6040516101179190610be3565b60405180910390f35b61013a60048036038101906101359190610cc9565b610508565b005b6101446106f6565b6040516101519190610d17565b60405180910390f35b61016261071c565b60405161016f9190610be3565b60405180910390f35b610192600480360381019061018d9190610cc9565b610723565b6040516101a29493929190610d6e565b60405180910390f35b6101c560048036038101906101c09190610db3565b610780565b005b600581565b600160009054906101000a900473ffffffffffffffffffffffffffffffffffffffff1681565b6101fa610b7a565b60006003600083815260200190815260200160002090503373ffffffffffffffffffffffffffffffffffffffff168160000160009054906101000a900473ffffffffffffffffffffffffffffffffffffffff1673ffffffffffffffffffffffffffffffffffffffff16146102a3576040517f08c379a000000000000000000000000000000000000000000000000000000000815260040161029a90610e50565b60405180910390fd5b8060030160009054906101000a900460ff16156102f5576040517f08c379a00000000000000000000000000000000000000000000000000000000081526004016102ec90610ebc565b60405180910390fd5b600061030482600101546104db565b9050600160009054906101000a900473ffffffffffffffffffffffffffffffffffffffff1673ffffffffffffffffffffffffffffffffffffffff166323b872dd3330846040518463ffffffff1660e01b815260040161036593929190610edc565b6020604051808303816000875af1158015610384573d6000803e3d6000fd5b505050506040513d601f19601f820116820180604052508101906103a89190610f3f565b6103e7576040517f08c379a00000000000000000000000000000000000000000000000000000000081526004016103de90610fb8565b60405180910390fd5b600260009054906101000a900473ffffffffffffffffffffffffffffffffffffffff1673ffffffffffffffffffffffffffffffffffffffff166323b872dd3033866040518463ffffffff1660e01b815260040161044693929190610edc565b600060405180830381600087803b15801561046057600080fd5b505af1158015610474573d6000803e3d6000fd5b5050505060018260030160006101000a81548160ff0219169083151502179055507fc200a1f31dd659e356e0f112c82558e25f49f7b0f84438691cd96f5cb355882333846040516104c6929190610fd8565b60405180910390a150506104d8610bc0565b50565b600060646005836104ec9190611030565b6104f691906110a1565b8261050191906110d2565b9050919050565b610510610b7a565b60006003600083815260200190815260200160002090508060020154421161056d576040517f08c379a000000000000000000000000000000000000000000000000000000000815260040161056490611152565b60405180910390fd5b8060030160009054906101000a900460ff16156105bf576040517f08c379a00000000000000000000000000000000000000000000000000000000081526004016105b6906111be565b60405180910390fd5b600260009054906101000a900473ffffffffffffffffffffffffffffffffffffffff1673ffffffffffffffffffffffffffffffffffffffff166323b872dd3033856040518463ffffffff1660e01b815260040161061e93929190610edc565b600060405180830381600087803b15801561063857600080fd5b505af115801561064c573d6000803e3d6000fd5b5050505060036000838152602001908152602001600020600080820160006101000a81549073ffffffffffffffffffffffffffffffffffffffff0219169055600182016000905560028201600090556003820160006101000a81549060ff021916905550507f197c586353eaed0a1c53e6e540445b94befab8f932c8115d112115ecbeeed51433836040516106e2929190610fd8565b60405180910390a1506106f3610bc0565b50565b600260009054906101000a900473ffffffffffffffffffffffffffffffffffffffff1681565b62278d0081565b60036020528060005260406000206000915090508060000160009054906101000a900473ffffffffffffffffffffffffffffffffffffffff16908060010154908060020154908060030160009054906101000a900460ff16905084565b610788610b7a565b3373ffffffffffffffffffffffffffffffffffffffff16600260009054906101000a900473ffffffffffffffffffffffffffffffffffffffff1673ffffffffffffffffffffffffffffffffffffffff16636352211e846040518263ffffffff1660e01b81526004016107fa9190610be3565b602060405180830381865afa158015610817573d6000803e3d6000fd5b505050506040513d601f19601f8201168201806040525081019061083b919061120a565b73ffffffffffffffffffffffffffffffffffffffff1614610891576040517f08c379a000000000000000000000000000000000000000000000000000000000815260040161088890611283565b60405180910390fd5b60006003600084815260200190815260200160002060010154146108ea576040517f08c379a00000000000000000000000000000000000000000000000000000000081526004016108e1906112ef565b60405180910390fd5b600260009054906101000a900473ffffffffffffffffffffffffffffffffffffffff1673ffffffffffffffffffffffffffffffffffffffff166323b872dd3330856040518463ffffffff1660e01b815260040161094993929190610edc565b600060405180830381600087803b15801561096357600080fd5b505af1158015610977573d6000803e3d6000fd5b50505050600160009054906101000a900473ffffffffffffffffffffffffffffffffffffffff1673ffffffffffffffffffffffffffffffffffffffff1663a9059cbb33836040518363ffffffff1660e01b81526004016109d8929190610fd8565b6020604051808303816000875af11580156109f7573d6000803e3d6000fd5b505050506040513d601f19601f82011682018060405250810190610a1b9190610f3f565b610a5a576040517f08c379a0000000000000000000000000000000000000000000000000000000008152600401610a519061135b565b60405180910390fd5b60405180608001604052803373ffffffffffffffffffffffffffffffffffffffff16815260200182815260200162278d0042610a9691906110d2565b8152602001600015158152506003600084815260200190815260200160002060008201518160000160006101000a81548173ffffffffffffffffffffffffffffffffffffffff021916908373ffffffffffffffffffffffffffffffffffffffff160217905550602082015181600101556040820151816002015560608201518160030160006101000a81548160ff0219169083151502179055509050507f58d170de3a12438e22d81380f353b2fcac86f0a708a1374deaa5c6322a95992f338383604051610b669392919061137b565b60405180910390a1610b76610bc0565b5050565b600260005403610bb6576040517f3ee5aeb500000000000000000000000000000000000000000000000000000000815260040160405180910390fd5b6002600081905550565b6001600081905550565b6000819050919050565b610bdd81610bca565b82525050565b6000602082019050610bf86000830184610bd4565b92915050565b600073ffffffffffffffffffffffffffffffffffffffff82169050919050565b6000819050919050565b6000610c43610c3e610c3984610bfe565b610c1e565b610bfe565b9050919050565b6000610c5582610c28565b9050919050565b6000610c6782610c4a565b9050919050565b610c7781610c5c565b82525050565b6000602082019050610c926000830184610c6e565b92915050565b600080fd5b610ca681610bca565b8114610cb157600080fd5b50565b600081359050610cc381610c9d565b92915050565b600060208284031215610cdf57610cde610c98565b5b6000610ced84828501610cb4565b91505092915050565b6000610d0182610c4a565b9050919050565b610d1181610cf6565b82525050565b6000602082019050610d2c6000830184610d08565b92915050565b6000610d3d82610bfe565b9050919050565b610d4d81610d32565b82525050565b60008115159050919050565b610d6881610d53565b82525050565b6000608082019050610d836000830187610d44565b610d906020830186610bd4565b610d9d6040830185610bd4565b610daa6060830184610d5f565b95945050505050565b60008060408385031215610dca57610dc9610c98565b5b6000610dd885828601610cb4565b9250506020610de985828601610cb4565b9150509250929050565b600082825260208201905092915050565b7f596f75277265206e6f742074686520626f72726f776572000000000000000000600082015250565b6000610e3a601783610df3565b9150610e4582610e04565b602082019050919050565b60006020820190508181036000830152610e6981610e2d565b9050919050565b7f4c6f616e20616c72656164792072657061696400000000000000000000000000600082015250565b6000610ea6601383610df3565b9150610eb182610e70565b602082019050919050565b60006020820190508181036000830152610ed581610e99565b9050919050565b6000606082019050610ef16000830186610d44565b610efe6020830185610d44565b610f0b6040830184610bd4565b949350505050565b610f1c81610d53565b8114610f2757600080fd5b50565b600081519050610f3981610f13565b92915050565b600060208284031215610f5557610f54610c98565b5b6000610f6384828501610f2a565b91505092915050565b7f52657061796d656e74206661696c656400000000000000000000000000000000600082015250565b6000610fa2601083610df3565b9150610fad82610f6c565b602082019050919050565b60006020820190508181036000830152610fd181610f95565b9050919050565b6000604082019050610fed6000830185610d44565b610ffa6020830184610bd4565b9392505050565b7f4e487b7100000000000000000000000000000000000000000000000000000000600052601160045260246000fd5b600061103b82610bca565b915061104683610bca565b925082820261105481610bca565b9150828204841483151761106b5761106a611001565b5b5092915050565b7f4e487b7100000000000000000000000000000000000000000000000000000000600052601260045260246000fd5b60006110ac82610bca565b91506110b783610bca565b9250826110c7576110c6611072565b5b828204905092915050565b60006110dd82610bca565b91506110e883610bca565b9250828201905080821115611100576110ff611001565b5b92915050565b7f4c6f616e206973206e6f74207965742064756500000000000000000000000000600082015250565b600061113c601383610df3565b915061114782611106565b602082019050919050565b6000602082019050818103600083015261116b8161112f565b9050919050565b7f4c6f616e20686173206265656e20726570616964000000000000000000000000600082015250565b60006111a8601483610df3565b91506111b382611172565b602082019050919050565b600060208201905081810360008301526111d78161119b565b9050919050565b6111e781610d32565b81146111f257600080fd5b50565b600081519050611204816111de565b92915050565b6000602082840312156112205761121f610c98565b5b600061122e848285016111f5565b91505092915050565b7f596f7520646f6e2774206f776e2074686973204e465400000000000000000000600082015250565b600061126d601683610df3565b915061127882611237565b602082019050919050565b6000602082019050818103600083015261129c81611260565b9050919050565b7f4e465420616c72656164792068617320616e20616374697665206c6f616e0000600082015250565b60006112d9601e83610df3565b91506112e4826112a3565b602082019050919050565b60006020820190508181036000830152611308816112cc565b9050919050565b7f546f6b656e207472616e73666572206661696c65640000000000000000000000600082015250565b6000611345601583610df3565b91506113508261130f565b602082019050919050565b6000602082019050818103600083015261137481611338565b9050919050565b60006060820190506113906000830186610d44565b61139d6020830185610bd4565b6113aa6040830184610bd4565b94935050505056fea264697066735822122007529c6f3d8701e0f8f0ba8be958a5685085904b0cbdf07a47be84b3906f874364736f6c63430008180033",
  "linkReferences": {},
  "deployedLinkReferences": {}
}